:080F06004100E4004100E1009C
:10000300D294C2957F327E00120DFFD294D29522F4
:100EEA00C294D2957F327E00120DFFD294D29522FF
:0808DC0090000BEEF0A3EFF019
:1008E400E4A3F0A3F0A3F0A3F0A3F0A3F0A3F0A378
:1008F400F0FC7D6412039690000BEEF0A3EFF0126F
:100904000F2390000EE004F0700690000DE004F058
:10091400900012E004F07006900011E004F09000E2
:100924000DE07004A3E064647036900010E004F0FD
:10093400700690000FE004F090000FE07004A3E054
:100944006404701C90000DF0A3F0A3F0A3F09000D9
:1009540013E0FEA3E0F4FFEEF4900013F0A3EFF035
:10096400900013E07002A3E07002B2A590000BE0C7
:10097400FEA3E0FF900011E06E7003A3E06F60033C
:05098400020903D2A5E9
:01098900224B
:100E35009000E3E0FFB4F206E49000E1F022EFB4A5
:100E4500010D120EEA7FF47E01120DFF02000390E0
:0E0E550000E3E0B402077F647E001208DC2296
:100B48009000E2E014602514603C146044240370B3
:100B580045C2917B007A0079087F52120BD0900031
:100B68000AEFF070369000E204F0802FC2927B000A
:100B78007A00792612060A90000AEFF070189000A1
:100B8800E27402F08015120E639000E27403F080A4
:100B98000A120DC18000E49000E2F0B2939000E1E7
:100BA800E0C394C840077F0A7E001208DC9000E189
:100BB800E0C39464400B7FF2120EFA9000E27403D3
:070BC800F09000E1E004F0F1
:010BCF002203
:100E8900758920E4F587759850758DFD758BFDD2B0
:100E99008ED2ACD2AF120DC1120F18120ED87F41EB
:030EA900020CAA8E
:0C0EFA008F9920990600120F2380F72228
:100EAC00120E89C293120F0F120F1FD290D291D231
:090EBC0092120B48120F2380F280
:03002300020CF5D7
:100CF500C0E0C0F0C083C082C0D075D000C000C0C5
:100D050001C002C003C004C005C006C007C2AF30A1
:100D1500980B9000E3E599F0C298120E35D2AFD04A
:100D250007D006D005D004D003D002D001D000D022
:0A0D3500D0D082D083D0F0D0E0329D
:100E63007FFD120EFAE49000E4F09000E4E0FFC38B
:100E73009404501174262FF8E6FF120EFA9000E442
:060E8300E004F080E5220E
:0D0BD00090000BEFF0A3EBF0A3EAF0A3E917
:100BDD00120EC57D077F0D120D867D037F14120049
:100BED001690000BE0900011F09000287401F0A316
:100BFD00F0A37400F0A37411F0A37401F0A37400BA
:100C0D00F0A3740FF07A007911120048EF7039904B
:100C1D00000FE07004A3E06410702D900011E0FE51
:100C2D0090000CE0FBA3E0FAA3E0F9EE1203629052
:100C3D000012E0FE90000CE0FBA3E0FAA3E0F990B7
:0A0C4D000001EE12037480027FFE26
:010C5700227A
:0B060A0090000BEBF0A3EAF0A3E9F076
:10061500E490000F120EC5E4FD7F0D120D867D805E
:100625007F0E120ECA9000127493F0A37420F090FE
:1006350000287402F07B01A314F0A37400F0A374E6
:1006450012F0A3EBF0A37400F0A37410F07A007914
:10065500127F0C12004C90000EEFF07058FC7412D3
:100665002CF582E43400F583E0FE90000BE0FBA35B
:10067500E0FAA3E0F9AF048F82758300EE120374EC
:1006850090000FE0FE74122FF582E43400F583E04C
:10069500FDEE6D90000FF00CECB404C274122CF555
:1006A50082E43400F583E0FF90000FE06F60069070
:1006B500000E74FEF07D807F0E12001690000EE095
:0106C500FF35
:0106C6002211
:0B082C0090006AEBF0A3EAF0A3E9F0F3
:1008370090006F7493F0A37470F0E4900075F0FC6F
:1008470090006AE0FBA3E0FAA3E0F9AF048F82759A
:100857008300120335FE74712FF582E43400F583AB
:10086700EEF0900075E0FE8F82758300120335FD70
:10087700EE6D900075F00CECB404C59000DD7401CA
:10088700F0A37400F0A37476F07B017A00796F7D92
:10089700071206DE120EC69000287409F0A3740131
:1008A700F0A37400F0A3746FF0A37401F0A37400B5
:1008B700F0A3746DF07B017A00796F7F0C12004C06
:1008C700EF700F90006DE07004A3E064187003FFF1
:0408D70080027FFE1E
:0108DB0022FA
:0B098A00900037EBF0A3EAF0A3E9F0C7
:10099500900040EFF0A3EDF0E4FF900037E0FBA3FB
:1009A500E0FAA3E0F98F82758300120335FE7442E5
:1009B5002FF582E43400F583EEF00FEFB406DBE4A7
:1009C500FF90003AE0FBA3E0FAA3E0F98F8275837C
:1009D50000120335FE74482FF582E43400F583EEEA
:1009E500F00FEFB406DB900028740CF0A37401F04F
:1009F500A37400F0A37440F0A37401F0A37400F095
:100A0500A3743EF07B017A0079407F0E12004C9072
:100A1500003DEFF070097F08120D45EF20E30690C9
:0A0A2500003D74FEF090003DE0FF7C
:010A2F0022A4
:0B0A3000900081EBF0A3EAF0A3E9F0D6
:100A3B009000867430F0A3EFF09000DD7401F0A30A
:100A4B007400F0A37488F07A0079861206DA9000AD
:100A5B00287404F0A37401F0A37400F0A37486F05F
:100A6B00A37401F0A37400F0A37484F07B017A00EB
:100A7B0079867F0C12004CEF7034900084E0700488
:100A8B00A3E064907028FE74862EF582E43400F5A2
:100A9B0083E0FD900081E0FBA3E0FAA3E0F98E82F6
:100AAB00758300ED1203740EEEB410DB80027FFE33
:010ABB002218
:0B050F00900098EBF0A3EAF0A3E9F0E5
:10051A0090009D74A0F0A3EFF09000DD7401F0A3A9
:10052A007400F0A3749FF07B017A00799D7D02121A
:10053A0006DE9000287404F0A37401F0A37400F09E
:10054A00A3749DF0A37401F0A37400F0A3749BF04C
:10055A007B017A00799D7F0C12004CEF7016900097
:10056A009BE07004A3E06404700A90009DE0540FBD
:10057A00640A60027FFEEF6003020609FE9000989B
:10058A00E0FBA3E0FAA3E0F98E827583001203353B
:10059A00FD749D2EF582E43400F583EDF00EEEB481
:1005AA0010DB9000DD7401F0A37400F0A374ADF0C9
:1005BA007B017A00799D7D101206DE900028741264
:1005CA00F0A37401F0A37400F0A3749DF0A3740166
:1005DA00F0A37400F0A3749BF07B017A00799D7FED
:1005EA000C12004CEF701690009BE07004A3E064BC
:0F05FA0004700A90009DE0540F640A60027FFEB7
:0106090022CE
:100C58009000B27450F0E4A3F07B019000DD04F042
:100C6800A37400F0A374B4F07A0079B27D0212067E
:100C7800DE9000287404F0A37401F0A37400F0A3BC
:100C880074B2F0A37401F0A37400F0A374B0F07B05
:100C9800017A0079B27F0C12004C9000AFEFF07F20
:010CA800004B
:010CA9002228
:1006C700F09000DD7401F0A37400F0A3745AF07A7F
:0706D7000079587B017D0250
:0E06DE009000D9EBF0A3EAF0A3E9F0A3EDF051
:1006EC007D047F05120ECA120D827D807F0A1200D6
:1006FC0016E49000E0F09000DCE0FF9000E0E0FEFB
:10070C00C39F50219000D9E0FBA3E0FAA3E0F98E3F
:10071C0082758300120335FD7F09120D869000E06F
:10072C00E004F080D17D037F01120D869000E0740F
:10073C00FFF07F05120D459000E0E014F0E060043E
:10074C00EF30E2EE7F22120D459000DDE0FBA3E0DE
:10075C00FAA3E0F9EF1203627F21120D459000DD40
:0F076C00E0FBA3E0FAA3E0F9900001EF020374B1
:100DC100D2A400C2A400D2A4007D0F7F01120D861F
:100DD100007D3D7F11120D867D1E7F2D120D86E453
:100DE100FD7F2C120D867D8D7F2A120D867D3E7F23
:0E0DF1002B120D867D407F15120D867F00228D
:100CAA00EF64417040120EC67D3D7F11120D867DA4
:100CBA00867F17120D867D7F7F26120D867D1E7F09
:100CCA002D120D86E4FD7F2C120D867D8D7F2A1252
:100CDA000D867D3E7F2B120D867F017E00120DFF51
:0B0CEA00120ED880037FFF227F002243
:060D3F00AC07AB05E4FE69
:100D4500E4FEC2A1C2A0EF25E0547E4480FF7D08E9
:100D5500EF30E703D38001C392A2D2A1EF25E0FFD4
:100D6500C2A1DDEC7D08D2A1EE25E0FEA2A3E4330D
:0C0D75004EFEC2A1DDF0D2A0D2A1AF065C
:010D8100224F
:040D8200E4FD7F010C
:100D8600C2A1C2A0EF25E0547EFF7E08EF30E70344
:100D9600D38001C392A2D2A1EF25E0FFC2A1DEEC6F
:100DA6007E08ED30E703D38001C392A2D2A1ED25E0
:0A0DB600E0FDC2A1DEECD2A0D2A144
:010DC0002210
:0D001600120D3FAE07AF04EB4EFD020D864C
:050EC500F07D087F082C
:0E0ECA00120D3FAE07AF04EBF45EFD020D8685
:100026007404900028F0A37401F0A37400F0A37484
:1000360058F0A37401F0A37400F0A37456F07A008C
:0600460079587B017F0CDC
:10004C00900025EBF0A3EAF0A3E9F0900024EFF088
:10005C0090002F74FEF0E4A3F0A3F0EF24F46010F2
:10006C0024FE70169000307412F0A37410F0800A05
:10007C009000307477F0A37430F0900030E044803E
:10008C00FD7F02120D867D807F04120ECA120D8236
:10009C007D807F0A120016E4900033F0A3F09000EC
:1000AC0028E0FF900033E0FCA3E0FDC39FEC94003C
:1000BC005028900025E0FBA3E0FAA3E0F98D828C98
:1000CC0083120335FD7F09120D86900034E004F095
:1000DC0070CC900033E004F080C4900024E0FD7FED
:1000EC0001120D86E0B40C077D807F0D1200169076
:1000FC0000337407F0A374D0F07F04120D45900008
:10010C0032EFF0900034E024FFF0900033E034FF45
:10011C00F0E07002A3E06011900032E0FF20E009F3
:10012C00900031E0FEEF5E60D07D807F0D120ECA34
:10013C00900033E07002A3E0700302022F7F0612DE
:10014C000D45EF541B600302022990002FF0A3E031
:10015C00FF900032E05F30E00690002F74FFF090CB
:10016C000024E0640C600302022F7F0A120D4590FC
:10017C000032EFF07F0C120D45EF5407FD6026E0C6
:10018C0024FFFFE434FFFEEF7803C333CE33CED825
:10019C00F97C002DFFEC3EF990002CE0FBA3E0FA7B
:1001AC00A3E0C98016900032E075F008A4FF90001F
:1001BC002CE0FBA3E0FAA3E0F9E5F08FF01203BE0C
:1001CC00900032E0700204F0900032E0D3941240C0
:1001DC00037412F0E4900033F0A3F0900032E0FFCF
:1001EC00C3900034E09F900033E0940050357F09B9
:1001FC00120D45900029E0FBA3E0FAA3E0F9900072
:10020C0033E0FCA3E0F5828C83EF1203749000348E
:10021C00E004F070C6900033E004F080BE90002F34
:10022C0074FEF07D807F0C120016120D8290002F50
:02023C00E0FFE1
:01023E00229D
:100ED8007F14120D45EF540370077D037F14120031
:010EE80016F3
:010EE90022E6
:070F18007D037F14020ECAE5
:10077B00900053EBF0A3EAF0A3E9F0900052EDF0F8
:10078B00900058EFF0A3ED1206C7120026EF70167B
:10079B00900056E07004A3E06404700A900058E0E7
:1007AB00540F640A60027FFEEF704478587C007D22
:1007BB0001900053E0FBA3E0FAA3E0F97E007F0475
:1007CB0012030F9000DD7401F0A37400F0A3745CAE
:1007DB00F07B017A0079587D041206DEE490005616
:1007EB00F0A3F07406120028EF64FE6002E4FFEF42
:1007FB00702E90005874B0F0900052E09000591297
:10080B0006C7120026EF7016900056E07004A3E0A6
:10081B006404700A900058E0540F640A60027FFE73
:01082B0022AA
:0503DD009000C4EDF0EA
:1003E2009000C774C2F0A3EFF09000DD7401F0A397
:1003F2007400F0A374C9F07B017A0079C77D021200
:1004020006DE9000287404F0A37401F0A37400F0D7
:10041200A374C7F0A37401F0A37400F0A374C5F031
:100422007B017A0079C77F0C12004CEF70169000A6
:10043200C5E07004A3E06404700A9000C7E0540FA2
:10044200640A60027FFEEF70529000C7F0A3F0A32F
:10045200F0A3F07B019000DD04F0A37400F0A3741C
:10046200CBF07A0079C77D041206DE90002874066C
:10047200F0A37401F0A37400F0A374C7F0A3740195
:10048200F0A37400F0A374C5F07B017A0079C77FF2
:100492000C12004CEF64FE6002E4FFEF60037FFE8B
:1004A200229000C774B0F09000C4E09000C8F090B1
:1004B20000DD7401F0A37400F0A374C9F07B017A2B
:1004C2000079C77D021206DE9000287404F0A3743E
:1004D20001F0A37400F0A374C7F0A37401F0A37435
:1004E20000F0A374C5F07B017A0079C77F0C12007B
:1004F2004CEF70169000C5E07004A3E06404700A2B
:0C0502009000C7E0540F640A60027FFE06
:01050E0022CA
:100DFF0090000AEEF0A3EFF075CBDC75CA0075CD4D
:100E0F00DC75CC00D2CA90000A74FFF5F01203A86B
:100E1F0045F0600F20CF05120F2380F8C2CF120FBD
:060E2F002380E3C2CA2289
:090F0F00D2AAC28AD2AF8FE122FE
:040F1F0043E1202268
:040F230075E137221B
:040F270043E1082278
:040F2B0053E1F72275
:03001300020F2FAA
:040F2F00120F233248
:03000000020ABC35
:0C0ABC00787FE4F6D8FD758129020B0359
:10023F00E709F608DFFA8046E709F208DFFA803EA1
:10024F0088828C83E709F0A3DFFA8032E309F6088E
:10025F00DFFA8078E309F208DFFA807088828C83F6
:10026F00E309F0A3DFFA806489828A83E0A3F608AA
:10027F00DFFA805889828A83E0A3F208DFFA804C84
:10028F0080D280FA80C680D4806980F2803380105B
:10029F0080A680EA809A80A880DA80E280CA8033C4
:1002AF0089828A83ECFAE493A3C8C582C8CCC5833C
:1002BF00CCF0A3C8C582C8CCC583CCDFE9DEE7800C
:1002CF000D89828A83E493A3F608DFF9ECFAA9F08B
:1002DF00EDFB2289828A83ECFAE0A3C8C582C8CCE1
:1002EF00C583CCF0A3C8C582C8CCC583CCDFEADEFA
:1002FF00E880DB89828A83E493A3F208DFF980CC5C
:10030F0088F0EF60010E4E60C388F0ED2402B40454
:10031F000050B9F582EB2402B4040050AF232345FB
:06032F00822390028F738F
:10033500BB010CE58229F582E5833AF583E022507D
:1003450006E92582F8E622BBFE06E92582F8E222C7
:0D035500E58229F582E5833AF583E49322E1
:10036200BB010689828A83F0225002F722BBFE017A
:02037200F32274
:10037400F8BB010DE58229F582E5833AF583E8F0BF
:10038400225006E92582C8F622BBFE05E92582C86B
:02039400F22253
:10039600EF8DF0A4A8F0CF8CF0A428CE8DF0A42E7B
:0203A600FE2235
:1003A800A3F8E0C5F025F0F0E58215827002158308
:0603B800E0C838F0E82265
:1003BE00BB010A89828A83F0E5F0A3F0225006F78A
:0F03CE0009A7F01922BBFE06F3E5F009F3192287
:100AC800020EACE493A3F8E493A34003F68001F28A
:100AD80008DFF48029E493A3F85407240CC8C3332F
:100AE800C4540F4420C8834004F456800146F6DFFE
:100AF800E4800B0102040810204080900F06E47E79
:100B0800019360BCA3FF543F30E509541FFEE493F2
:100B1800A360010ECF54C025E060A840B8E493A3B9
:100B2800FAE493A3F8E493A3C8C582C8CAC583CAE4
:100B3800F0A3C8C582C8CAC583CADFE9DEE780BE9C
:010F0E0000E2
:00000001FF
